:020000040000FA
:100000000C9462000C948A000C948A000C948A0070
:100010000C948A000C948A000C948A000C948A0038
:100020000C948A000C948A000C948A000C948A0028
:100030000C948A000C948A000C948A000C948A0018
:100040000C9443050C948A000C9411050C94EB0459
:100050000C948A000C948A000C948A000C948A00F8
:100060000C948A000C948A000000000024002700F1
:100070002A0000000000250028002B0000000000DE
:1000800023002600290004040404040404040202DA
:100090000202020203030303030301020408102007
:1000A0004080010204081020010204081020000012
:1000B0000008000201000003040700000000000027
:1000C00000008D0511241FBECFEFD8E0DEBFCDBFED
:1000D00011E0A0E0B1E0EEE4F3E102C005900D9282
:1000E000A435B107D9F722E0A4E5B1E001C01D9223
:1000F000A030B207E1F710E0C2E6D0E004C02197DB
:10010000FE010E949F09C136D107C9F70E94C405AC
:100110000C94A5090C940000AF92BF92CF92DF928D
:10012000EF92FF920F931F93CF93DF936C017B01AC
:100130008B01040F151FEB015E01AE18BF08C0173D
:10014000D10759F06991D601ED91FC910190F081B0
:10015000E02DC6010995892B79F7C501DF91CF9173
:100160001F910F91FF90EF90DF90CF90BF90AF90D5
:100170000895FC01538D448D252F30E0842F90E0AD
:10018000821B930B541710F0CF9608950197089592
:10019000FC01918D828D981761F0A28DAE0FBF2F5B
:1001A000B11D5D968C91928D9F5F9F73928F90E0B1
:1001B00008958FEF9FEF0895FC01918D828D981720
:1001C00031F0828DE80FF11D858D90E008958FEF5D
:1001D0009FEF0895FC01918D228D892F90E0805C26
:1001E0009F4F821B91098F73992708958DE591E0A8
:1001F0000E94EA0021E0892B09F420E0822F089573
:1002000080E090E0892B29F00E94F60081110C9487
:1002100000000895FC01A48DA80FB92FB11DA35AA9
:10022000BF4F2C91848D90E001968F739927848F16
:10023000A689B7892C93A089B1898C918370806439
:100240008C93938D848D981306C00288F389E02DDA
:1002500080818F7D80830895EF92FF920F931F938B
:10026000CF93DF93EC0181E0888F9B8D8C8D981369
:100270001AC0E889F989808185FF15C09FB7F89475
:10028000EE89FF896083E889F989808183708064C1
:1002900080839FBF81E090E0DF91CF911F910F910C
:1002A000FF90EF900895F62E0B8D10E00F5F1F4F1B
:1002B0000F731127E02E8C8D8E110CC00FB607FC2A
:1002C000FACFE889F989808185FFF5CFCE010E94B8
:1002D0000A01F1CFEB8DEC0FFD2FF11DE35AFF4F1B
:1002E000F0829FB7F8940B8FEA89FB898081806246
:1002F000CFCFCF93DF93EC01888D8823B9F0AA8903
:10030000BB89E889F9898C9185FD03C0808186FDD0
:100310000DC00FB607FCF7CF8C9185FFF2CF80811F
:1003200085FFEDCFCE010E940A01E9CFDF91CF9189
:100330000895833081F028F4813099F08230A9F05B
:1003400008958730A9F08830C9F08430B1F48091E5
:1003500080008F7D03C0809180008F778093800024
:10036000089584B58F7784BD089584B58F7DFBCFC4
:100370008091B0008F778093B00008958091B00095
:100380008F7DF9CFCF93DF93282F30E0F901E2552D
:10039000FF4F8491F901E656FF4FD491F901EA57D6
:1003A000FF4FC491CC23A1F081110E949901EC2F41
:1003B000F0E0EE0FFF1FE458FF4FA591B491EC91D0
:1003C000ED2381E090E009F480E0DF91CF91089582
:1003D00080E090E0FACF1F93CF93DF93282F30E097
:1003E000F901E255FF4F8491F901E656FF4FD49190
:1003F000F901EA57FF4FC491CC23A9F0162F8111C0
:100400000E949901EC2FF0E0EE0FFF1FEE58FF4F16
:10041000A591B4918FB7F894EC91111108C0D095C3
:10042000DE23DC938FBFDF91CF911F910895DE2BE8
:10043000F8CFCF93DF9390E0FC01E656FF4F249175
:100440008A579F4FFC0184918823D1F090E0880F58
:10045000991FFC01E859FF4FA591B491FC01EE589A
:10046000FF4FC591D49161110EC09FB7F8948C9144
:10047000E22FE0958E238C932881E223E8839FBFAF
:10048000DF91CF9108958FB7F894EC91E22BEC9324
:100490008FBFF6CFCF93DF93D82FC62F61E00E9496
:1004A000190261E08C2F0E94190261E08D2F0E94D9
:1004B000EB0161E08C2F0E94EB0160E08C2FDF915B
:1004C000CF910C94EB013FB7F89480915901909132
:1004D0005A01A0915B01B0915C0126B5A89B05C0B3
:1004E0002F3F19F00196A11DB11D3FBFBA2FA92FB3
:1004F000982F8827BC01CD01620F711D811D911DB0
:1005000042E0660F771F881F991F4A95D1F708951B
:100510008F929F92AF92BF92CF92DF92EF92FF9213
:100520004B015C010E9463026B017C010E9463022B
:100530006C197D098E099F09683E734081059105FC
:10054000A8F321E0821A9108A108B10888EEC80E2C
:1005500083E0D81EE11CF11C81149104A104B104B4
:1005600029F7FF90EF90DF90CF90BF90AF909F90D2
:100570008F900895EF92FF920F931F93CF93DF9385
:10058000E82EF62E08E010E0D0E0C0E061E08F2D0C
:100590000E94EB016AE070E080E090E00E94880237
:1005A000CC0FDD1F8E2D0E94C201C80FD91F60E045
:1005B0008F2D0E94EB010150110941F7CE01DF910F
:1005C000CF911F910F91FF90EF900895EF92FF92BE
:1005D0000F931F93CF93DF93C82FF92ED62FE72EBB
:1005E00060E00E94190261E08D2F0E9419026D2FB8
:1005F0007E2D8C2F9F2D0E94BA0200E0182F61E003
:100600008C2F0E94190261E08C2F0E94EB0160E0A8
:100610008C2F0E94EB0161E08D2F0E94EB0160E0C6
:100620008D2F0E94EB0160E08C2F0E9419026D2F2C
:100630007E2D8C2F9F2D0E94BA02802B912BDF9153
:10064000CF911F910F91FF90EF9008951F93CF933B
:10065000DF93182F60E00E941902C4E6D0E06AE040
:1006600070E080E090E00E948802812F0E94C20129
:10067000892B11F0219799F7DF91CF911F91089560
:10068000FC0101900020E9F73197AF01481B590B9D
:10069000BC018DE591E00C948C008F929F92AF92FB
:1006A000BF920F931F93CF93DF93CDB7DEB7A19780
:1006B0000FB6F894DEBF0FBECDBF19A2423008F4CA
:1006C0004AE08E010F5D1F4F842E912CB12CA12C7E
:1006D000A50194010E947D09E62FB901CA01EA3003
:1006E000F4F4E05DD801EE938D01232B242B252B10
:1006F00079F790E080E0109719F0CD010E94400357
:10070000A1960FB6F894DEBF0FBECDBFDF91CF919B
:100710001F910F91BF90AF909F908F900895E95CCB
:10072000E1CF4F925F926F927F928F929F92AF92A2
:10073000BF92CF92DF92EF92FF920F931F93CF93CE
:100740006B017C01742EAC019B010E947809882307
:1007500099F082E191E0CF911F910F91FF90EF907E
:10076000DF90CF90BF90AF909F908F907F906F90D1
:100770005F904F900C94400346015701E894B7F8FE
:100780002FEF3FEF4FE75FE7C501B4010E94780903
:1007900081110DC02FEF3FEF4FE75FE7C501B401B7
:1007A0000E94A70718161CF486E191E0D4CF2FEF22
:1007B0003FEF4FE75FE4C701B6010E940609181634
:1007C0001CF48AE191E0C7CF2FEF3FEF4FE75FECDA
:1007D000C701B6010E94A70787FDF3CF20E030E0F4
:1007E000A901C701B6010E94A70710E000E087FF3A
:1007F0000AC06DE28DE591E00E942C018C01F7FAB0
:10080000F094F7F8F094C0E060E070E080E09FE3DF
:100810007C1641F020E030E040E251E40E94AC0759
:10082000CF5FF6CFA70196010E943B072B013C0149
:100830000E9425084B015C014AE00E944D037C01A7
:10084000E00EF11ECC23C1F1C501B4010E94540891
:100850009B01AC01C301B2010E943A074B015C014C
:100860006EE28DE591E00E942C01E80EF91EC15068
:1008700018F120E030E040E251E4C501B4010E94EB
:100880000B092B013C010E9425084B01B12CA12C26
:100890004AE0C501B4010E944D03E80EF91EC501EE
:1008A000B4010E9454089B01AC01C301B2010E9433
:1008B0003A074B015C01DBCFC701CF911F910F912C
:1008C000FF90EF90DF90CF90BF90AF909F908F9070
:1008D0007F906F905F904F9008950F931F93CF93E9
:1008E000DF93182FD62FC42F61E08D2F0E9419029D
:1008F00061E08C2F0E94190261E08D2F0E94EB01B4
:1009000061E08C2F0E94EB0160E08D2F0E94EB01D3
:1009100060E08C2F0E94EB0161E08C2F0E94EB01C4
:1009200061E08D2F0E94EB0160E08C2F0E94EB01B3
:1009300008E0612F661F6627661F8D2F0E94EB015E
:10094000110F61E08C2F0E94EB0160E08C2F0E9460
:10095000EB01015071F761E08C2F0E94EB0160E028
:100960008D2F0E9419028D2F0E94C20160E08C2FF2
:100970000E94EB018D2FDF91CF911F910F910C946D
:10098000C2010F931F93CF93DF93CAEFD1E04A8147
:100990005B816881798183E090E00E946D048881A9
:1009A00099810E9426036A817B81888199810E94B6
:1009B000E6028C016A817B81888199810E944A02CA
:1009C000B801110F880B990B0E945608DF91CF9147
:1009D0001F910F9108951F920F920FB60F9211243D
:1009E0002F933F934F935F936F937F938F939F9337
:1009F000AF93BF93EF93FF938DE591E00E940A01BF
:100A0000FF91EF91BF91AF919F918F917F916F91E6
:100A10005F914F913F912F910F900FBE0F901F90BC
:100A200018951F920F920FB60F9211242F938F9348
:100A30009F93EF93FF93E0916D01F0916E018081A0
:100A4000E0917301F091740182FD1BC0908180914F
:100A500076018F5F8F7320917701821741F0E091CB
:100A60007601F0E0E35AFE4F958F80937601FF9177
:100A7000EF919F918F912F910F900FBE0F901F902C
:100A800018958081F4CF1F920F920FB60F92112408
:100A90002F933F938F939F93AF93BF938091550173
:100AA00090915601A0915701B09158013091540195
:100AB00023E0230F2D3758F50196A11DB11D20937A
:100AC00054018093550190935601A0935701B09320
:100AD00058018091590190915A01A0915B01B09108
:100AE0005C010196A11DB11D8093590190935A019B
:100AF000A0935B01B0935C01BF91AF919F918F91E7
:100B00003F912F910F900FBE0F901F90189526E8E0
:100B1000230F0296A11DB11DD2CFEDE5F1E01382A6
:100B2000128288EE93E0A0E0B0E084839583A683F0
:100B3000B78384E091E09183808385EC90E0958792
:100B4000848784EC90E09787868780EC90E0918B97
:100B5000808B81EC90E0938B828B82EC90E0958B84
:100B6000848B86EC90E0978B868B118E128E138E81
:100B7000148EEAEFF1E08AE090E0918380838BE0CD
:100B800090E0938382830895CF93DF9300D000D0C9
:100B9000CDB7DEB7789484B5826084BD84B58160BA
:100BA00084BD85B5826085BD85B5816085BD809138
:100BB0006E00816080936E001092810080918100B0
:100BC00082608093810080918100816080938100A8
:100BD000809180008160809380008091B10084606A
:100BE0008093B1008091B00081608093B0008091CB
:100BF0007A00846080937A0080917A00826080938A
:100C00007A0080917A00816080937A0080917A00E6
:100C1000806880937A001092C100E0916D01F0919C
:100C20006E0182E08083E0916901F0916A01108297
:100C3000E0916B01F0916C018FEC80831092750153
:100C4000E0917101F091720186E08083E0916F0183
:100C5000F0917001808180618083E0916F01F0915B
:100C60007001808188608083E0916F01F091700154
:100C7000808180688083E0916F01F09170018081B4
:100C80008F7D808360E08EE00E94190210E40E9454
:100C9000C1040E941E08072E000C880B990B0E94AD
:100CA00056082AE037ED43E25CE30E940B0920E09E
:100CB00030E040E252E40E943A074B015C0140916F
:100CC000FC015091FD016091FA017091FB0185E0FA
:100CD00090E00E946D048091FA019091FB010E94C6
:100CE00026036091FC017091FD018091FA019091C1
:100CF000FB010E94E6027C016091FC017091FD0104
:100D00008091FA019091FB010E944A02B701FF0C09
:100D1000880B990B0E9456086B017C0124E533EE89
:100D200045E25DE30E940B0920E030E040E850E43A
:100D30000E943A072B013C0122EA37EE4BE356EBC7
:100D4000C701B6010E940B09A70196010E940B0979
:100D50009B01AC01C301B2010E943B0769837A8306
:100D60008B839C830E94C1040E941E08072E000CE6
:100D7000880B990B0E9456082AE037ED43E25CE3AA
:100D80000E940B0920E030E040E252E40E943A0762
:100D900020E030E048EC51E40E943A072B013C018E
:100DA0002CEA35EC47EA58E3C701B6010E940B096B
:100DB0002AE037ED43E25CE30E943B079B01AC0174
:100DC000C301B2010E940B0929813A814B815C81E8
:100DD0000E943B072B013C0110937C0080917A001C
:100DE000806480937A0080917A0086FDFCCFE09049
:100DF0007800F09079008EE191E00E9440034AE093
:100E0000C501B4010E9491038AE291E00E9440036F
:100E10008CE291E00E94400342E0C301B2010E94D3
:100E2000910388E391E00E9440038BE391E00E94EC
:100E30004003B701072E000C880B990B0E9456083F
:100E400042E00E94910380E591E00E94400360ED42
:100E500077E080E090E00E94880280E090E0892BBB
:100E600009F415CF0E94F600882309F410CF0E94E0
:100E700000000DCF5058BB27AA270E9452070C94A0
:100E8000CC080E94BE0838F00E94C50820F039F452
:100E90009F3F19F426F40C94BB080EF4E095E7FB91
:100EA0000C94B508E92F0E94DD0858F3BA176207C1
:100EB00073078407950720F079F4A6F50C94FF08D2
:100EC0000EF4E0950B2EBA2FA02D0B01B901900165
:100ED0000C01CA01A0011124FF27591B99F0593FA9
:100EE00050F4503E68F11A16F040A22F232F342FF1
:100EF0004427585FF3CF469537952795A795F0403F
:100F00005395C9F77EF41F16BA0B620B730B840B53
:100F1000BAF09150A1F0FF0FBB1F661F771F881F0B
:100F2000C2F70EC0BA0F621F731F841F48F4879563
:100F300077956795B795F7959E3F08F0B0CF939555
:100F4000880F08F09927EE0F9795879508950E94CE
:100F5000910808F481E008950E94C0070C94CC0821
:100F60000E94C50858F00E94BE0840F029F45F3F77
:100F700029F00C94B50851110C9400090C94BB088D
:100F80000E94DD0868F39923B1F3552391F3951B73
:100F9000550BBB27AA2762177307840738F09F5F9A
:100FA0005F4F220F331F441FAA1FA9F335D00E2E07
:100FB0003AF0E0E832D091505040E695001CCAF774
:100FC0002BD0FE2F29D0660F771F881FBB1F261737
:100FD00037074807AB07B0E809F0BB0B802DBF010E
:100FE000FF2793585F4F3AF09E3F510578F00C94DD
:100FF000B5080C9400095F3FE4F3983ED4F386955E
:1010000077956795B795F7959F5FC9F7880F911DFD
:101010009695879597F90895E1E0660F771F881FE9
:10102000BB1F621773078407BA0720F0621B730B9C
:10103000840BBA0BEE1F88F7E09508950E942508EF
:101040006894B1110C94000908950E94E50888F095
:101050009F5798F0B92F9927B751B0F0E1F0660F7C
:10106000771F881F991F1AF0BA95C9F714C0B130BD
:1010700091F00E94FF08B1E008950C94FF08672FDB
:10108000782F8827B85F39F0B93FCCF386957795EC
:101090006795B395D9F73EF49095809570956195D5
:1010A0007F4F8F4F9F4F0895E89409C097FB3EF400
:1010B00090958095709561957F4F8F4F9F4F9923A5
:1010C000A9F0F92F96E9BB279395F6958795779523
:1010D0006795B795F111F8CFFAF4BB0F11F460FFE3
:1010E0001BC06F5F7F4F8F4F9F4F16C0882311F03B
:1010F00096E911C0772321F09EE8872F762F05C04F
:10110000662371F096E8862F70E060E02AF09A95E9
:10111000660F771F881FDAF7880F9695879597F9DE
:101120000895990F0008550FAA0BE0E8FEEF161678
:101130001706E807F907C0F012161306E407F507CB
:1011400098F0621B730B840B950B39F40A2661F03F
:10115000232B242B252B21F408950A2609F4A140E2
:10116000A6958FEF811D811D089597F99F6780E8EF
:1011700070E060E008959FEF80EC089500240A94E9
:101180001616170618060906089500240A94121662
:101190001306140605060895092E0394000C11F495
:1011A000882352F0BB0F40F4BF2B11F460FF04C042
:1011B0006F5F7F4F8F4F9F4F089557FD9058440F9B
:1011C000551F59F05F3F71F04795880F97FB991FA6
:1011D00061F09F3F79F08795089512161306140663
:1011E000551FF2CF4695F1DF08C0161617061806F0
:1011F000991FF1CF86957105610508940895E894CB
:10120000BB2766277727CB0197F908950E9491089D
:1012100008F48FEF08950E941E090C94CC080E94D8
:10122000BE0838F00E94C50820F0952311F00C94F8
:10123000B5080C94BB0811240C9400090E94DD0829
:1012400070F3959FC1F3950F50E0551F629FF00119
:10125000729FBB27F00DB11D639FAA27F00DB11D32
:10126000AA1F649F6627B00DA11D661F829F2227BB
:10127000B00DA11D621F739FB00DA11D621F839F42
:10128000A00D611D221F749F3327A00D611D231F18
:10129000849F600D211D822F762F6A2F11249F5766
:1012A00050409AF0F1F088234AF0EE0FFF1FBB1F69
:1012B000661F771F881F91505040A9F79E3F510528
:1012C00080F00C94B5080C9400095F3FE4F3983E5D
:1012D000D4F3869577956795B795F795E7959F5FD2
:1012E000C1F7FE2B880F911D9695879597F9089564
:1012F0000E949108880B990B0895A1E21A2EAA1B4F
:10130000BB1BFD010DC0AA1FBB1FEE1FFF1FA217B5
:10131000B307E407F50720F0A21BB30BE40BF50BB2
:10132000661F771F881F991F1A9469F7609570953B
:10133000809590959B01AC01BD01CF010895EE0F02
:10134000FF1F0590F491E02D0994F894FFCF000061
:1013500000002C018C00B9007901EA00C800DC0013
:101360006E616E00696E66006F76660054656D7022
:10137000657261747572653A20002048756D696404
:101380006974793A2000202E004761732053656EFE
:10139000736F722052656164696E673A20000D0AAE
:0213A00000004B
:107E0000112484B714BE81FFF0D085E080938100F7
:107E100082E08093C00088E18093C10086E0809377
:107E2000C20080E18093C4008EE0C9D0259A86E02C
:107E300020E33CEF91E0309385002093840096BBD3
:107E4000B09BFECF1D9AA8958150A9F7CC24DD24C4
:107E500088248394B5E0AB2EA1E19A2EF3E0BF2EE7
:107E6000A2D0813461F49FD0082FAFD0023811F036
:107E7000013811F484E001C083E08DD089C08234E0
:107E800011F484E103C0853419F485E0A6D080C0E4
:107E9000853579F488D0E82EFF2485D0082F10E0AE
:107EA000102F00270E291F29000F111F8ED06801E7
:107EB0006FC0863521F484E090D080E0DECF843638
:107EC00009F040C070D06FD0082F6DD080E0C81688
:107ED00080E7D80618F4F601B7BEE895C0E0D1E017
:107EE00062D089930C17E1F7F0E0CF16F0E7DF06D8
:107EF00018F0F601B7BEE89568D007B600FCFDCFD4
:107F0000A601A0E0B1E02C9130E011968C91119780
:107F100090E0982F8827822B932B1296FA010C0160
:107F200087BEE89511244E5F5F4FF1E0A038BF0790
:107F300051F7F601A7BEE89507B600FCFDCF97BE46
:107F4000E89526C08437B1F42ED02DD0F82E2BD052
:107F50003CD0F601EF2C8F010F5F1F4F84911BD097
:107F6000EA94F801C1F70894C11CD11CFA94CF0C13
:107F7000D11C0EC0853739F428D08EE10CD085E9AC
:107F80000AD08FE07ACF813511F488E018D01DD067
:107F900080E101D065CF982F8091C00085FFFCCF94
:107FA0009093C60008958091C00087FFFCCF809118
:107FB000C00084FD01C0A8958091C6000895E0E648
:107FC000F0E098E1908380830895EDDF803219F02E
:107FD00088E0F5DFFFCF84E1DECF1F93182FE3DFCA
:107FE0001150E9F7F2DF1F91089580E0E8DFEE27F6
:047FF000FF270994CA
:027FFE00040479
:00000001FF
